:020000041000EA
:10000000C0300030C55A0010B552001067500010C3
:1000100071500010D74F0010C55B0010E55A00105A
:10002000000000000000000000000000E15A001085
:10003000F14F001000000000B55A0010E75A001000
:10004000B9520010B7520010D95A0010235B0010AB
:10005000255B0010275B001000000000000000007E
:10006000000000006D500010B35A00106F500010D7
:10007000D54F0010000000006B500010E35A001034
:10008000D94F001000000000000000000000000038
:100090000000000000000000000000000000000060
:1000A0000000000000000000DF4F0010295B00107E
:1000B000DB4F0010DD4F00100000000000000000CA
:1000C000215B0010AB5B0010B75B0010AD5B001054
:1000D000B95B0010AF5B0010BB5B0010B15B0010A0
:1000E000BD5B0010B35B0010BF5B00109D5B001098
:1000F0009F5B0010A15B0010A35B0010A55B0010CC
:10010000A95B0010F34F0010695000102B5B00102A
:10011000C35B0010DB5A0010DD5A0010DF5A0010DC
:10012000F54F00100000000000000000000000007B
:1001300000000000000000000000000000000000BF
:1001400000000000000000000000000000000000AF
:100150000000000017500010395000105B500010D4
:1001600065500010F74F00100550001007500010A8
:10017000095000100B5000100D5000100F500010CF
:10018000115000101350001015500010F94F0010BE
:10019000FB4F0010FD4F0010FF4F001001500010EA
:1001A0000350001019500010275000102950001063
:1001B0002B5000102D5000102F5000103150001007
:1001C0003350001035500010375000101B500010F5
:1001D0001D5000101F50001021500010235000101F
:1001E000255000103B500010495000104B5000109B
:1001F0004D5000104F50001051500010535000103F
:100200005550001057500010595000103D5000102C
:100210003F50001041500010435000104550001056
:10022000475000105D5000105F50001061500010EA
:1002300063500010B55B0010C15B0010A75B00109D
:1002400000000000000000000000000000000000AE
:10025000000000000000000000000000000000009E
:10026000000000000000000000000000000000008E
:10027000000000000000000000000000000000007E
:1007C00000F002F800F0A9F80AA090E8000C8244BA
:1007D0008344AAF10107DA4501D100F09EF8AFF297
:1007E000090EBAE80F0013F0010F18BFFB1A43F00F
:1007F000010318472006040040060400103A24BFF5
:1008000078C878C1FAD8520724BF30C830C144BF75
:1008100004680C60704700000023002400250026B7
:10082000103A28BF78C1FBD8520728BF30C148BF53
:100830000B6070476E2901F0BF86702901F0F187C7
:10084000662938F07182652938F06E82672938F0A0
:100850006B82612938F06A8203681B0A28BF41F065
:100860008001692901F06C86642901F06986752987
:1008700001F066866F2901F07F87782901F0BD8736
:10088000E92901F01987E42901F01687F52901F01B
:100890001387EF2901F07C87F82901F0BC870368F2
:1008A000DB0928BF41F08001632900F01A85732914
:1008B00000F01F85E32903F05D85F32903F06285CD
:1008C000002070471FB538F004F90E480E4900F0BB
:1008D00053FE01F07BFD04000020002137F084FF6F
:1008E000401C60600020002137F0AAFFE06000207B
:1008F000002137F08FFF206101F0FAF800F06EFC64
:100900001FBD0000B8280030B82C003010B5002002
:1009100001F04CFB01F055F910BDDFF810D0FFF7E6
:10092000D1FF36F07DF803F094F80000C0300030BD
:1009300003B4FFF7EBFF03BC00F062FC0048704714
:100940005800003053EA020C00F069802DE9F04BAA
:100950004FF00006002B1FBFB3FA83F503FA05F42E
:1009600024FA05F65E4012BF1643B2FA82F502FA87
:1009700005F4C5F120051EBF22FA05FC44EA0C046B
:10098000203556EA044C4FEA144418BF641C4FF05B
:1009900000084FF00009904271EB030C39D3002995
:1009A00019BFB1FA81F701FA07F6B0FA80F700FA39
:1009B00007F6C7F120071EBF20FA07FC46EA0C061F
:1009C0002037B6FBF4FCA7EB0507103F07F01F0B21
:1009D000CBF120062CFA06F60CFA0BFB44BFB3460B
:1009E0000026202FA4BF5E464FF0000B5BEA060CEA
:1009F00008BF4FF0010B19EB0B0948EB0608ABFBE6
:100A0000027C06FB02CC0BFB03CCC01B71EB0C0180
:100A1000C1E70B46024641464846BDE8F08B13B598
:100A2000084318BF4FF0FF300146AFF30080BDE828
:100A30001C40704753EA020C23D010B54C1084EAD6
:100A4000530404D54042C1F1000138BF491E1B4286
:100A500004D55242C3F1000338BF5B1EFFF772FF9B
:100A600014F0804F04D04042C1F1000138BF491E4C
:100A700014F0004F04D05242C3F1000338BF5B1E94
:100A800010BD13B540424FF0000070EB0104B8BF39
:100A9000012001F0004100281CBF6FF000414FF021
:100AA000FF30AFF300801CBD0FB4044910B503AA9A
:100AB000029800F023FC10BC5DF814FB0C01003020
:100AC00070B50C460546012A05D02878800600D569
:100AD000EA69002302E0012305E05B1C934202D295
:100AE000E05C0028F9D1A869E618C01AA861286A54
:100AF00018442862284601F0E9FC04E0D5E9012108
:100B000014F8010B9047B442F8D3284601F0F4FCE6
:100B100070BD00002DE9F05F894604464FF0000AE1
:100B2000DFF874B1FB44C0F820A02046E168884794
:100B3000002874D0252806D0D4E901219047206AE6
:100B4000401C2062F1E700265F462046E1688847A6
:100B50002028054607DB312D05D2781910F8200C26
:100B600008B10643F1E7B00701D526F00406C4F842
:100B70001CA00027C4F818A02A2D09D0284637F059
:100B800088FD38B304EB8708303DC8F8185019E0E9
:100B900059F8041B204604EB87029161E1688847FD
:100BA000012F054618D1E069002820DA26F020063A
:100BB0001DE0D8F8180000EB800005EB400030384D
:100BC000C8F818002046E1688847054637F061FDFF
:100BD0000028EED1012F0AD02E2D08D12046E16841
:100BE00088477F1C0546022F46F02006C4DBA0691B
:100BF000002803DA404246F00106A061F00701D068
:100C000026F010066C2D0BD0682D09D04C2D39D054
:100C10006A2D35D0742D35D07A2D33D016E038E0DA
:100C2000E1682F4620468847B842054609D16C2F17
:100C300026D04FF48060E168064320468847054689
:100C400004E06C2F1AD04FF4807006430DB3A5F169
:100C50004100192802D8203546F400664A46294644
:100C6000204626604E46FFF7E5FD80B101280BD0F7
:100C7000F61D26F0070000F1080956E74020E4E7DA
:100C80008020D8E70020D6E706F104094DE7284682
:100C900052E7206ABDE8F09F0483030000F040BBE8
:100CA00000F086BB10B5002000F02FFCFFF72EFEF1
:100CB000BDE81040012000F0A3BA2DE9F0479846A6
:100CC00014460F468246DDF8209094B1012C0BD0DB
:100CD0004A465046650805FB08763146904700288D
:100CE0000CD00DDA2C46F0E74A463946504690477C
:100CF00010B10020BDE8F0873846FBE73046F9E741
:100D0000641B641E06EB0807DFE70B460146184626
:100D100000F0E4BB0EB5054614460E4613A003F0E2
:100D20002DFE284603F02AFE16A003F027FE3046CB
:100D300003F024FE15A003F021FE00218DF80B1016
:100D40000A210DF10A008DF80A1008E094FBF1F277
:100D500001FB124294FBF1F4303200F8012D002C1B
:100D6000F4DC03F00BFEFFF79DFF00002A2A2A2087
:100D7000617373657274696F6E206661696C656416
:100D80003A2000002C2066696C6520002C206C69DC
:100D90006E65200040EA010310B59B070FD1042ABD
:100DA0000DD310C808C9121F9C42F8D020BA19BA36
:100DB000884201D9012010BD4FF0FF3010BD1AB19B
:100DC000D30703D0521C07E0002010BD10F8013BF0
:100DD00011F8014B1B1B07D110F8013B11F8014B17
:100DE0001B1B01D1921EF1D1184610BD10B5431C3A
:100DF00002E010F8011B71B18107FAD14FF0013206
:100E000002C88C1A8C4314EAC211F9D0C01A0A061F
:100E100003D0C01E10BDC01A10BD0A0401D0801E30
:100E200010BD0902FCD0401E10BD40EA010370B5A0
:100E30009B072ED14FF00136042A2AD308C810C9C7
:100E40009D1B9D43121F15EAC61517D0D8B2E1B2FB
:100E5000401A50EA056110D198B2A1B2401A50EA86
:100E600005410AD123F07F4024F07F41401A50EA27
:100E7000052102D1180EA0EB146070BDA342DBD097
:100E800018BA21BA884201D9012070BD4FF0FF3055
:100E900070BD0AB9002070BD10F8013B11F8014B7C
:100EA00063B1A3420AD1521E08D010F8013B11F8D9
:100EB000014B1BB1A34201D1521EEDD1181B70BDD5
:100EC000032A40F2308010F0030C00F0158011F876
:100ED000013BBCF1020F624498BF11F801CB00F84E
:100EE000013B38BF11F8013BA2F1040298BF00F8A2
:100EF00001CB38BF00F8013B11F0030300F067801D
:100F0000083AC0F0088051F8043B083A51F804CB85
:100F1000A0E80810F5E7121D5CBF51F8043B40F84B
:100F2000043BAFF30080D20724BF11F8013B11F856
:100F300001CB48BF11F8012B24BF00F8013B00F89A
:100F400001CB48BF00F8012B7047431A28BF9A42D3
:100F50007FF6B6AF10441144032A40F2268010F009
:100F6000030F1EBF11F8013D521E00F8013D10F0A5
:100F7000030F7FF4F6AF11F0030300F06D80083A21
:100F8000C0F00B8051F8043D083A51F804CD40F808
:100F9000043D40F804CDFFF7F3BF121D5CBF51F8CC
:100FA000043D40F8043DAFF30080D20724BF11F8A0
:100FB000013D11F801CD48BF11F8012C24BF00F804
:100FC000013D00F801CD48BF00F8012C704710B575
:100FD000203AC0F00B80B1E81850A0E81850B1E8F2
:100FE0001850A0E81850203ABFF4F5AF5FEA027C31
:100FF00024BFB1E81850A0E8185044BF18C918C061
:10100000BDE810405FEA827C24BF51F8043B40F801
:10101000043B08BF7047D20728BF31F8023B48BFE6
:1010200011F8012B28BF20F8023B48BF00F8012B24
:101030007047431A28BF9A427FF6C9AF1044114443
:1010400010F0030F1EBF11F8013D521E00F8013DC4
:1010500010F0030F7FF4F6AF103AC0F00A8010B51D
:1010600031E9185020E91850103ABFF4F9AFBDE843
:101070001040530724BF31E9081020E9081044BF8D
:1010800051F8043D40F8043D12F0030F08BF7047CB
:10109000D20728BF31F8023D48BF11F8012C28BF04
:1010A00020F8023D48BF00F8012C704702F0FF0312
:1010B00043EA032242EA024200F00AB802F0FF03C8
:1010C00043EA032242EA024200F024B84FF0000251
:1010D0000429C0F0128010F0030C00F01B80CCF14A
:1010E000040CBCF1020F18BF00F8012BA8BF20F8B8
:1010F000022BA1EB0C0100F00DB85FEAC17C24BF0C
:1011000000F8012B00F8012B48BF00F8012B7047B5
:101110004FF0000200B5134694469646203922BF90
:10112000A0E80C50A0E80C50B1F12001BFF4F7AFDB
:10113000090728BFA0E80C5048BF0CC05DF804EBBD
:10114000890028BF40F8042B08BF704748BF20F82B
:10115000022B11F0804F18BF00F8012B70470000E0
:1011600030B44FF0013C50F8042B51F8043BCCFA5A
:1011700052F4D51A20D1FCB950F8042B51F8043B95
:10118000CCFA52F4D51A17D1B4B950F8042B51F84F
:10119000043BCCFA52F4D51A0ED16CB950F8042B9A
:1011A00051F8043BCCFA52F4D51A05D1002CDAD010
:1011B00030BC4FF00000704729BAB1FA81F111F04C
:1011C0001801D1F120008440F2D1CA40CB4012F086
:1011D000FF0213F0FF0330BCD01A704770B5064C05
:1011E0007C44064D7D4404E0204601680844804765
:1011F000241DAC42F8D170BD0CFF030060FF03005A
:1012000001491820ABBEFEE72600020070B5064675
:1012100000F092F9056806F10B0020F00704B442D3
:101220009CBF002070BD2B466A68BAB11068A0420E
:1012300010D304F1080188423CBF5068586007D3BE
:101240005168101941601168091B016058601460F1
:10125000101D70BD13465268002AE7D1214628466A
:1012600000F076F90028DED170BD70B50446051F88
:1012700000F062F90068002C14BF446870BD002CB7
:1012800018BFAC423CBF20466468F8D301680A1816
:10129000AA4218BF456003D12A680546114401607F
:1012A00028684119A1421CBF6C6070BD616869600B
:1012B00021680844286070BD10B5FFF73FFB006847
:1012C00010BD10B50446FFF739FB046010BD10B522
:1012D000436913B1AFF3008001E0FFF7F1FB012098
:1012E00010BD127800F124010A7000224A70012218
:1012F000EDE711684FF0FF32E9E70000074B70B5EA
:101300000D467B4400F02DFA0446284600F0D5FA3D
:1013100010B14FF0FF3070BD204670BDB3730300B5
:101320002DE9F04791460E4680460446002514F804
:10133000017B2FB100F0F8F80068C05DC007F6D15E
:101340002B2F02D02D2F1ED0641E4A463146204638
:1013500000F052FA26B13268A24201D1C6F80080EC
:101360004FF002046A0518D50023D0EB030563EBA8
:1013700001025D1B934109DB0023D0EB030063EB0B
:101380000101BDE8F08745F48065DEE7FFF7D6FA96
:10139000046000204FF00041F3E7021E71F10002EB
:1013A000EFDAFFF7CBFA04604FF0FF304108E8E7CF
:1013B0002DE9F05F93460F46804604460026FFF76E
:1013C000BDFAD0F80090824614F8015B2DB100F010
:1013D000ABF80068405DC007F6D12B2D02D02D2D53
:1013E0001FD0641E0021CAF800105A463946204614
:1013F00000F002FA024627B13868A04201D1C7F8CE
:101400000080DAF8000002280ED0CAF800907005BB
:101410000AD500200346D2EB000063EB0101BDE8D2
:10142000F09F46F48066DDE71046F8E770B50446A5
:10143000C068810713D0800601D5A56A04E0A169C0
:10144000606808442169451A204600F00DFB00221F
:1014500006462946204600F035FA304670BD002089
:1014600070BD70B510B1BDE87040DFE70025074CD6
:101470006E1E07E02046FFF7D9FF00B13546206D0C
:1014800020F00104002CF5D1284670BDB8000030D2
:1014900037F006B9CA68431C0FD00D4B1A420CD165
:1014A000D3070AD081F825004B680B6300238B60BB
:1014B00012F0C06F0B6003D004E04FF0FF307047B4
:1014C00042F00072034B1A40034B1A43CA60704744
:1014D00080200800BFFFDFFF001048002DE9F04129
:1014E000074615460E461020FFF790FE04000AD06E
:1014F0006760C4E9026500F023F8016821600460B8
:101500000020BDE8F0810120FBE710B500F074FD7C
:10151000BDE8104000F06BBD08B569468DF80000CD
:101520000320ABBE08BD704710B500F04FFF001D93
:1015300010BD00BFB5720300004870476000003066
:101540000048704790000030704770477047704700
:1015500038B504460A4600206946AFF300800028EB
:1015600008BF38BD02460099204600F033FF012035
:1015700038BD012002F096BAF8B5AFF300800546F9
:1015800000200C46102000BF0646A819A0420DD925
:10159000324669460020AFF30080070008BF02F022
:1015A00081FA0098A04218BF0546C419FFF7C4FF8E
:1015B00005600746F01D20F007004619284600F098
:1015C0000AF8B44208BFF8BDA21B31463868BDE82E
:1015D000F84000F0FFBE00210160C0E90110704733
:1015E0001020704770B50D460646041FFFF7A4FF94
:1015F0000268BDB1DEB105F10B0020F00701A94280
:101600003CBF002070BD23688B4238BF506813D3A5
:101610005A1A082A36D3601840F8042B2160FFF7C5
:1016200024FE2FE03046FFF720FE002070BD284644
:10163000BDE87040FFF7EABD002818BFA0423CBFDC
:1016400002464068F8D303EB040C84451CD1D0F863
:1016500000C06344994217D8A3EB010CBCF1080FFA
:101660000DD3D0F804C06318C3F804C0D4F800C088
:1016700000686044401A18602160536002E02360F3
:1016800040685060201D70BD2846FFF7BFFD050073
:1016900008D031462068021F2846FFF798FC201D1D
:1016A000FFF7E3FD284670BD10B500F0ADFE00F079
:1016B000080010BD2DE9F0410F46134615460A46B5
:1016C00006460021084600F0E7FE0446401CFFF7EE
:1016D0009DFD306030B1611C2B463A46BDE8F041BB
:1016E00000F0DABE4FF0FF30BDE8F0810FB47CB5FA
:1016F0000C0009AA009001D02044401E084B7B44F6
:1017000069460190089800F02CF805461CB10020AD
:10171000694600F065FF28467CBC5DF814FB0000BC
:10172000E90E00007CB51D4616460C00009001D065
:101730002044401E074B7B442A46694601903046B0
:1017400000F00FF805461CB10020694600F048FF84
:1017500028467CBDB10E000001694A1C0261087870
:10176000704700B58FB0CDE90131002105910549E1
:101770007944CDE9031011466846FFF7CBF90FB065
:1017800000BD0000E5FFFFFF00B58DB0099000929D
:101790000B904FF0FF300A9000200C9005487844E1
:1017A0000690054878446A46079009A801F096FC1F
:1017B0000DB000BD5B190000731900000FB400B537
:1017C0008DB010A9099000910B904FF0FF300A9056
:1017D00000200C90064878440690064878446A46F3
:1017E00007900F9909A801F079FC0DB05DF814FB82
:1017F000231900003B1900002DE9F74F4FF00009B5
:101800001546CA46009C14F8010B302801D0ADB132
:1018100015E014F8010B4FF00109782803D058287F
:1018200001D04DB10BE00DB1102D08D14FF00009E2
:1018300014F8010B102502E0082500E00A25002716
:101840004FEAE57B3E46B84616E0A5FB07234FF07E
:10185000010905FB08000BFB0731030C05FB06160D
:10186000D7181FFA80F846F10006381E76F580304A
:1018700000D3CA4614F8010B294600F0DDFF00280A
:10188000E3DA019838B1B9F1000F01D0641E00E02D
:10189000009C01980460BAF1000F08D0FFF74EF8E1
:1018A00002210160C81E014603B0BDE8F08F31047B
:1018B00041EA174148EA0740F6E7007B00F0800064
:1018C000704700002DE9F041044616460D46476971
:1018D000007B80072ED0384631F0A7FF50BB3EB3C7
:1018E000012E02D0022E25D104E0204600F066F839
:1018F00005441DE0384631F096FFE168002841F0CC
:101900001001E16005DA204600F07AF80120BDE818
:10191000F081C9030BD56268E16A914200D8114693
:10192000A26911442269891A814200DD08460544F2
:10193000002D01DA0220EAE7E16A6068E26881428C
:1019400006D29103E06203D522F4003141F0100287
:10195000A6690027AE4213DCE16A814201D90B4639
:1019600000E0034603EB060C2369ACEB030CAC452B
:1019700006DD814201D98C4600E084469C4505D1B4
:10198000A760276042F02000A5620DE0AD1BE6696C
:10199000AE1B8142A66000D90846C01A281A2060F2
:1019A0005819606022F0200003490840E0600020E0
:1019B00084F84870ABE70000BFCFD7FF10B50146F1
:1019C000C268900703D0900607D5886A0AE0FEF740
:1019D000B5FF01210160881E10BD8B69486818445D
:1019E0000B69C01A91F848301BB191F84910401AA0
:1019F00010BD1103FCD50028FADD401E10BD00000B
:101A0000C16821F4001141F08001C16000218160B2
:101A1000016070472DE9F047814614460E464FF0AD
:101A2000FF383248D5685769054209D03846A16960
:101A300031F038FF002811DB2C48C0430540E56039
:101A40002B4632464946384631F02FFFA16920F037
:101A50000042B21A11440028A16103D02046FFF7CA
:101A6000CFFF4046BDE8F08770B504460569C06AFF
:101A70006168884200D80846E16821F42011E160DD
:101A8000C90312D5A84208D02246411B2846FFF7B9
:101A9000C1FF10B14FF0FF3070BD0020E562C4E916
:101AA0000150E06820F48030E060002070BD10B587
:101AB0000446C06820F02000E060A16AA069884266
:101AC0000DD02046FFF7D0FFE06820F4405040F0F2
:101AD0001000E060A06AA0612069E062606044F2EA
:101AE0004001E0688843E06010BD00001000020083
:101AF00010B542485421FFF70BFB41485421FFF732
:101B000007FB40485421FFF703FB3F493B483C4A51
:101B10003F4B08603D490A603A491960531C036510
:101B2000481C1065012008653B48344A39A17844B7
:101B300000F07AF820B9384878440A3801F0ABFF51
:101B400037482F4A35A1784400F06EF820B9344860
:101B500078440A3801F09FFF32482A4A2FA178447E
:101B600000F062F820B92F4878440A3801F093FF5A
:101B700040232248DC000021224601F0A9FE20B1CA
:101B800025487844543801F086FF1D4822464023FA
:101B9000002101F09DFE20B121487844543801F025
:101BA0007AFF184822461023002101F091FE0028F8
:101BB00006D01C487844BDE81040563801F06BBF91
:101BC00010BD104870B5006D20F001040B4800F006
:101BD000A3F80B4800F0A0F80A4800F09DF809E0CF
:101BE000206D20F00105204600F096F82046FFF712
:101BF0003CFB2C46002CF3D170BD0000B800003037
:101C00000C010030600100300000003004000030A2
:101C100008000030720000000E96030077000000FC
:101C2000FD950300D69503002DE9F0410C461646BC
:101C3000070047D0104600F06FF82078611C61283B
:101C40000AD0722802D077283CD102E00125002476
:101C500005E00225042402E0082448F2020511F8F8
:101C6000010B2B2806D0622809D011F8010C74282A
:101C70000AD00BE045F0030544F00204EFE745F01D
:101C8000040544F00104EAE744F010043846214614
:101C900031F0D2FD411C15D00021316171604FF44B
:101CA0000071F560F1617061200704D530460222B1
:101CB0000021FFF707FE306D40F00100306530462F
:101CC000BDE8F0810020FBE72DE9F0410D46064616
:101CD000104C206DC10704D0410804D020F001044D
:101CE000F7E722460EE05420FFF790FA07000ED0E7
:101CF000206D47F001010843542120653846FFF765
:101D000007FA3A4629463046BDE8F0418CE7002004
:101D1000D6E70000B80000302DE9F04704464FF048
:101D200000094FF0FF37C568D4E90486A80707D03B
:101D30002046FFF799FE304631F06EFD002802DAAA
:101D40003846BDE8F087280502D54046FFF78DFAF2
:101D50004C212046FFF7DCF9206D20F001002065C2
:101D60004846EEE72DE9FE430E4617468046002121
:101D70000846AFF3008005460020009001905EB158
:101D800030784FF0FF3900B1AFB11DB1D5E9000196
:101D9000CDE9000100240CE00020BDE8FE83315DA8
:101DA0006A46641C02A801F010FE411C03D0012801
:101DB00003D0BC42F3D34846EFE71DB1DDE9000193
:101DC000C5E90001B8F1000F03D0BDF80810A8F86C
:101DD0000010BDF808000028DFD02046DDE770B510
:101DE0000C4605460AB1104603E004210020AFF37B
:101DF000008022462946BDE870400346002000F0DE
:101E000039B82DE9F84F9146884607464FF000044F
:101E10005FEA030A0D681BD107210020AFF30080A1
:101E2000824615E015F8011B5246684601F0CDFDCB
:101E30000646401C13D0B61C0AD01FB1BDF80000E6
:101E400027F81400BDF80000641C70B1C8F80050F9
:101E5000002FE7D04C45E5D32046BDE8F88FFEF7CC
:101E60006DFD042101603046F7E70021601EC8F8CF
:101E70000010F2E701F050BD01F08ABD2DE9F84FE6
:101E80009B461746894680460024DDF828A00D6849
:101E90005FEA0A001ED10921AFF30080824619E0F3
:101EA00007B315F8011B524668467F1E01F08DFDF1
:101EB0000646401C19D0B61C0CD0B8F1000F03D058
:101EC000BDF8001028F81410BDF80000641C90B193
:101ED000C9F80050B8F1000FE2D05C45E0D32046CD
:101EE000BDE8F88FC9F80050F9E7FEF727FD042197
:101EF00001603046F4E70021601EC9F80010EFE7EA
:101F00002DE9FF4F91468846824683B00024109FFA
:101F10000E688FBB0A210020AFF3008007462BE03C
:101F200017B1D7E900B102913A466846318801F00D
:101F30006CFD0546401C0BD0BAF1000F16D0069878
:101F4000291981420CD9EFB10299C7E900B119E012
:101F5000FEF7F4FC04210160284607B0BDE8F08FCD
:101F60000AEB04002A466946FEF7AAFF30882C4493
:101F700050B1B61CC8F80060D8F8000010B1B9F133
:101F80000109CDD22046E8E70021641EC8F8001000
:101F9000F8E710B5FFF7C8FA006890F801110129B9
:101FA00001D0012010BDD0F80B0110BD2DE9F0418A
:101FB0000646FFF7C5FA8046454613E016B1E068CD
:101FC000B0420ED120682860D4E90101D8F8007031
:101FD00088472046FFF749F9D8F80000B842EBD10E
:101FE00000E025462C68002CE8D1BDE8F0810028EF
:101FF00001D0FFF705B9704710B5002102A001F02C
:1020000031FD012010BD0000534947414252543A6E
:102010002041626E6F726D616C207465726D696EC5
:102020006174696F6E000000520001F04EBD2DE931
:10203000F0410F46144605468046800704D084B11F
:102040002F80541E08F10205022C0AD3284624F0E2
:10205000010647EA07427100FFF75CF8A41B05EB95
:10206000460504B12F804046BDE8F08170B50546B5
:1020700001B90721541A241DB4F5B67F09DD28687B
:1020800000F05DF9A04204DC2868401C28600120B3
:1020900070BD002C05DA2868401E286000F04FF95A
:1020A0000444072094FBF0F0401C70BD2DE9F04F74
:1020B0001F4615468B468246002689B000F086F9F9
:1020C000D0F810800024BBF1000F70D015F8010B80
:1020D00010B125280DD10FE024B1641E06A850F8D8
:1020E0002450F3E7002130460AF8061009B0BDE895
:1020F000F08F0AF80600C7E0E94615F8010B5928E9
:1021000070D023DC49286ED014DC44286DD008DC64
:102110002528EED041283ED0422849D043282CD152
:1021200056E04528E9D0462869D0472876D0482887
:1021300023D17AE04D380C281FD2DFE800F0881E4A
:10214000061E1E9BA0A9B3B5C1CFD6E75A382128D9
:1021500013D2DFE800F0111212121212121A2637EF
:10216000455012592612741212797E128012891269
:1021700096A212B3BDCB1100A8E725200AF80600ED
:10218000761C5E4513D26D1EA0E7D8F80010BA6920
:10219000D8F8240011E0D8F80410BA69D8F828005B
:1021A0000BE0D8F808103A69D8F82C0005E0B2E046
:1021B000D8F80C103A69D8F8300002FB001101EB96
:1021C0000809AAE006A840F82450D8F818108AE0B8
:1021D0007969642091FBF0F21332484668A192E0DD
:1021E000FA6889E08AE022E0FFE706A840F8245078
:1021F00065A5641C6AE7FA6866A1484683E006A8FC
:1022000040F8245064A5F4E7384600F0ADF86421A6
:1022100090FBF1F201FB120258E0FFE7384600F0B4
:10222000A3F802465FA168466DE0BA6864E0B8684A
:102230000C210B3090FBF1F201FB120205E0FA6970
:1022400059A14846521C5EE03A694DA1F9E77A6807
:1022500052E00A2116E0B8680C2802DAD8F810100B
:10226000ADE7D8F81410AAE706A840F82450D8F82B
:10227000341038E006A840F824504DA5B9E73A6874
:102280003AE009210AF80610761C5E45B2D342E016
:1022900006A840F8245048A5ABE7BA6902B907225E
:1022A00048A1AAE700210CE0786900F26C70089060
:1022B000D7E9061208A8FFF7D9FE06E0BA69EFE7EA
:1022C0000121D7E9062000F02EF802462CA1AAE74A
:1022D00006A840F82450D8F81C1004E006A840F8DE
:1022E0002450D8F8201001EB080582E779696420B2
:1022F00091FBF0F200FB121221A17EE77A694846B9
:1023000028A102F26C7200F0B1F806E00AF80600AB
:10231000761C5E4501D30020E8E619F8010B002881
:102320003FF4DFAEF2E7511A00D5C91D401A01D5BE
:1023300000207047072190FBF1F0401C7047810797
:102340000CD1642190FBF1F201FB120151B94FF461
:10235000C87190FBF1F201FB120018B1002000F2ED
:102360006D1070470120FAE708B5416901F26C7100
:102370000091D0E906126846FFF778FE009808BD84
:10238000252E326400000000256D2F25642F25794D
:10239000000000002532640025592D256D2D25648F
:1023A0000000000025640000252E336400000000BA
:1023B00025483A254D00000025483A254D3A255339
:1023C00000000000252E3164000000000048704726
:1023D00078000030034640688C46002818BF8842C9
:1023E0003CBF03464068F8D318681844884207D0B9
:1023F0000CF1030020F00700001D411A521A01469B
:10240000081D0A60FEF731BF10B50446FF2801D948
:10241000002010BDFFF788F80068005D10F0980FED
:1024200003D0C10701D140F4806010F4846F01D063
:1024300040F4006010F0BA0F01D040F4807010F04A
:10244000BE0F01D040F40070810604D5010602D40D
:1024500040F0800001E020F02000C10701D04106DB
:1024600001D5092CD5D140F4805010BD0FB41CB556
:10247000084B06AA7B44694600900598FFF771F95E
:1024800004460020694600F0ABF820461CBC5DF80D
:1024900014FB0000690100007CB51D4616460C00C7
:1024A000009001D02044401E074B7B442A466946D9
:1024B00001903046FFF755F905461CB100206946EA
:1024C00000F08EF828467CBD3D01000070B5044642
:1024D00085690068C10601D5302600E02026C007C6
:1024E00007D070BDD4E9012130469047206A401CD6
:1024F00020626D1EF6D570BD70B504468569007802
:10250000C00707D170BDD4E9012120209047206A7F
:10251000401C20626D1EF6D570BD09684A0501D5C4
:1025200040B27047C905FCD500B2704709684A053A
:1025300001D5C0B27047C905FCD580B27047000014
:102540002DE9F0410646002410687529314616A58C
:1025500010D0FFF7E2FF002802DA404213A507E09F
:1025600031688A0701D512A502E0490704D511A5F3
:10257000012401E0FFF7DAFF00210A2206F1240717
:1025800009E0B0FBF2FCB0FBF2F302FB1C003030C0
:1025900078541846491C0028F3D123462A46304671
:1025A000BDE8F04101F0F6BA000000002D00000087
:1025B0002B0000002000000011680268006A53052B
:1025C00001D508700AE0D30501D5088006E013069E
:1025D00003D5C217C1E9000200E00860012070477E
:1025E0000A6802F8010B0A607047D1E900239A4299
:1025F00002D2531C0B601070704700002DE9FF5F82
:1026000015468A460446DFF8AC80F8440027D8E92E
:1026100000103E46CDE9001010E03AF816106A4668
:1026200002A801F0F2F9411C07D02178890603D5F0
:10263000E269391891420DD80744761C207880064B
:1026400002D5E069B84205DDAE42E6DB3AF8160095
:102650000028E2D1A069C01BA0612046FFF736FF29
:10266000D8E90010CDE90010002017E03AF8181062
:102670006A4602A801F0C9F9B0F1FF3F81460BD0CC
:1026800000250DF1080B05E0D4E901211BF8050038
:1026900090476D1C4D45F7D308F10100B0428046CC
:1026A000E4DB206A384420622046FFF725FFBDE8BE
:1026B000FF9F0000266A03002DE9F0418046D21DED
:1026C00022F007020025D2E90002F52915A614D050
:1026D000011E72F1000106DA0023D0EB030063EB68
:1026E000020211A608E0D8F800108B0701D50FA64A
:1026F00002E0490701D50EA601251146002408F184
:10270000240704E001F0F8F930323A55641C50EA2D
:102710000102F7D12B46324621464046BDE8F04142
:1027200001F038BA000000002D0000002B0000006E
:102730002000000030B4002100F1240408E002F081
:102740000705D208303542EA4372DB086554491C5C
:1027500052EA0305F3D10468002310A2250708D527
:1027600004F020040C4304D0C46901230CA2641EAD
:10277000C46130BC01F00EBA10B5044621461068A1
:10278000FFF7D4FE02462046BDE810400023D1E703
:10279000D21D22F00701D1E90023CBE700000000A1
:1027A00030000000F0B40D460188090502D5214C27
:1027B0007C4402E01F4C7C440E34002100F12406CE
:1027C00008E002F00F071209E75D42EA03721B09F5
:1027D0007754491C52EA0307F3D102780023120709
:1027E00004D5702D06D009B1022311342246F0BC65
:1027F00001F0D0B901231034F8E770B504460D4656
:1028000021461068FFF792FE024629462046BDE8A1
:1028100070400023C6E7D21D22F00703D3E900234E
:10282000C0E70368126843F0200303600823C36114
:102830000023B7E7886803003A2800D2303820F038
:102840002002412A01D3A2F13700884201D34FF080
:10285000FF3070472DE9FF4F1C4691464FF0FF3582
:1028600081B000218A468846D4E90167A1690298AF
:102870006D1C8847216A834688470028F6D1BBF142
:10288000FF3F0CD0002F26F4C0661ADD700615D568
:10289000BBF12B0F0AD0BBF12D0F0FD104E04FF08D
:1028A000FF3005B0BDE8F08F46F48066A16902985C
:1028B0006D1C88477F1E8346002F02DDBBF1300F61
:1028C00003D0B9F1000F2AD025E0A1696D1C029850
:1028D0007F1E46F400768847002F834605DDBBF156
:1028E000780F06D0BBF1580F03D0B9F1000F10D00C
:1028F00011E0B9F1000F02D0B9F1100F0BD1A169AD
:102900006D1C02987F1E26F40076884783461020AF
:1029100000E0082081464FEAE970009017E00A20A5
:10292000F8E74346AAFB0928DDF800C07F1E03FB39
:10293000098046F4007605F101050AFB0C0112EB53
:102940000B0A029841EBEB78A16988478346002F78
:1029500006DD49465846FFF76FFF5FEA000BE0D5FA
:10296000E16902988847B00502D46FF0010098E74A
:10297000F00718D1700610D55146700505D5002313
:10298000D1EB030163EB080200E042462068031D1F
:1029900023600068C0E9001205E02068011D216085
:1029A0000068C0E900A828467BE72DE9FF5F1D46C7
:1029B0004FF0FF3B91464FF000085F46D5E90146D6
:1029C000A96901987F1C8847296A824688470028A0
:1029D000F6D1BAF1FF3F0CD0002E24F4C06419DD0B
:1029E000600614D5BAF12B0F09D0BAF12D0F0ED114
:1029F00003E0584604B0BDE8F09F44F48064A96940
:102A000001987F1C8847761E8246002E02DDBAF1AF
:102A1000300F03D0B9F1000F26D032E0A969761E3D
:102A200001987F1C44F400748847002E824605DD1F
:102A3000BAF1780F06D0BAF1580F03D0B9F1000FF0
:102A400010D01EE0B9F1000F02D0B9F1100F18D16B
:102A5000A969761E01987F1C24F400748847824679
:102A6000102002E0082000E00A20814609E0A96960
:102A700008FB0908761E01987F1C44F400748847FF
:102A80008246002E05DD49465046FFF7D5FE002858
:102A9000EDDAE96901988847A00502D46FF00100DA
:102AA000A8E7E00725D1600613D5600502D5C8F177
:102AB000000000E0404629680A1D2A6009682205D6
:102AC00001D5087015E0220701D5088011E00860E3
:102AD0000FE02868011D29600068210502D580F8F3
:102AE000008006E0210702D5A0F8008001E0C0F8D0
:102AF000008038467EE72DE9FF5F4FF000089946D9
:102B0000144646469169D2E901A7DDF838B001982C
:102B10008847054659EA0B0005D009E0A1690198EC
:102B2000761C88470546216A284688470028F5D143
:102B3000681C03D05FEACA7005D015E04FF0FF3083
:102B400004B0BDE8F09F2068011D2160D0F800802E
:102B50000AE05FEACA7001D108F8015BA169761C3E
:102B600001987F1E88470546002F1ADD681C18D083
:102B7000B9F1000F0DD0E81705EBD060421120F03D
:102B80001F0059F822102A1A012090400142E0D17A
:102B900007E0BBF1000FDCD12846216A88470028F6
:102BA000D7D0E16901988847BBF1000F07D1002E0B
:102BB00005DD5FEACA7002D1002188F80010A06824
:102BC000B84203DDBBF1000F03D017B16FF0010075
:102BD000B6E73046B4E700002DE9FF4F06468BB05C
:102BE0000878FF2806D0491C2D2805D000244FF076
:102BF000000908E000200CE00124F8E709EB890354
:102C0000491C00EB43090878FF28F7D114B1C9F13A
:102C100000008146107800252C46AA4629462D281A
:102C200001D02B2804D1521C2D2813D0002082461D
:102C30008B461078FF280FD04FF0000C0A21521C51
:102C4000A5FB017804FB018105FB0C11C5194BEBB9
:102C50000104EEE70120EAE7002108464FF00000FA
:102C6000BAF1000F02D000EB80004008C0F381579A
:102C7000012F01DD4FF0FF370E9955EA040009EBF3
:102C800001080BD04FF0020918F5FA7F16DA4FEA67
:102C9000CA70002F706008DD012007E04FEACA709B
:102CA000C6E900B00FB0BDE8F08F00203060FDF73E
:102CB00045FEC0F800901821084616E0B8F5FA7FE6
:102CC00018DD002F02DAF748784401E0F64878442E
:102CD000D0E90010C6E9001040EACA707060FDF744
:102CE0002DFEC0F80090142108460FB0BDE8F04F4B
:102CF00035F078BF002108464FF00000B8F1000120
:102D0000099002DAC7F1000200E03A4601DAC8F1A0
:102D1000000106A801F004FD06AB93E8070003AB31
:102D200083E8070044F23E005BEA04010090584645
:102D300004D144F21E012C465D460091210C090489
:102D4000014306D10099240444EA15442D041039A6
:102D5000009104F07F41014306D10099240244EA26
:102D600015642D020839009104F07041014306D129
:102D70000099240144EA15742D01091F009104F003
:102D80004041014306D10099A40044EA9574AD0086
:102D9000891E009104F00041084304D100986D1988
:102DA0006441401E00904FF001033A466846B8F176
:102DB000000FCDE9014503A902DD34F072FA01E00C
:102DC00034F045FABAF1000F04460D4601D084F004
:102DD0000044002108464FF00000099940F2FF77B7
:102DE000484010F00C0F07D124F00040284303D0D6
:102DF000C4F30A50B84212D1FDF7A0FDC0F800900C
:102E0000C4F30A50B8420AD1A8487844D0E9001067
:102E1000C6E9001004F000410843706042E7C6E9CB
:102E200000543FE72DE9FF4F1F464FF0000A4FF0D7
:102E3000FF38454691B0D7E90146CDF83CA0FFF7F1
:102E4000C5FAC0680168405C1090B96912986D1CA1
:102E50008847396A814688470028F6D1B9F1FF3F93
:102E60000AD0002E24F4D06411DDB9F12B0F08D064
:102E7000B9F12D0F0BD102E0404615B013E744F431
:102E80008064B96912986D1C8847761E814660057A
:102E900004A901D52D2000E02B20002E01F1010B0B
:102EA0000DF130088DF810003FDDB9F1690F08D041
:102EB000B9F1490F05D0B9F16E0F02D0B9F14E0F3B
:102EC0001CD13B4601A8009580E85002DDE91212B2
:102ED0006FF0020035F090FFC11CCED10EE0B96951
:102EE00012986D1C884781461398761E44F400742E
:102EF00005600F98401C002E0F9016DDB9F1300FC1
:102F0000EDD0B9F1780F02D0B9F1580F0DD10F986B
:102F100001280AD13B46CDE90054DDE91212001F19
:102F2000029635F067FFC11CA7D1109989453ED1A3
:102F300044F0800406E01399681CAAF1010A44F4E5
:102F400000740860B9696D1C1298761E8847302895
:102F50008146F0D02BE01099894505D1200603D495
:102F6000761E44F0800418E0484635F092FB08B322
:102F7000761E0DF123029345A9F1300044F400744C
:102F800006D20BF8010B200607D5AAF1010003E0D9
:102F9000200602D40AF101008246A00502D5139949
:102FA000681C0860B96912986D1C88478146002E1C
:102FB000D1DC53E0002E51DDB9F1650F02D0B9F13B
:102FC000450F4BD1A00549D5B9696D1C1298761EE5
:102FD00024F440748847002E81460CDD2B2804D051
:102FE000B9F12D0F07D144F48074B96912986D1CA2
:102FF0008847761E8146E00501D52D2100E02B2172
:1030000008F8011BCDF8008021E0761E0DF1390192
:10301000884544F400740CD2A9F1300010F0FF0090
:1030200088F8000002D10099884509D908F1010803
:1030300006E0E00501D51E4801E042F20F7082462D
:10304000B96912986D1C8847814613980560002E57
:1030500004DD484635F01DFB0028D6D1F9691298E9
:103060008847FF2053468BF8000088F800000020B6
:103070000A900B9004AA0CA90AA8FFF7ADFDA005C1
:1030800002D46FF00100F8E614F0240F12D0E0072C
:103090001CD13868DDE90A12031D3B600068C0E9F5
:1030A000001213E070E1030062E1030026E0030078
:1030B000F1D8FFFF0AA9684635F0E4F9E00705D129
:1030C0003868009A011D3960006802602846D4E61D
:1030D000026811441378016018467047D1600549B1
:1030E000794451610449794411620021116111460A
:1030F00001F04CB9EDFFFFFF990A0000426842B1B0
:10310000016811F8013B23B1521EC0E900121846B4
:1031100070470121C160881E704742685AB1C36878
:10312000016843B983688B4205D0491E521CC0E92F
:103130000012002070474FF0FF3070470FB40B00B3
:1031400010B54FF000048AB00FA900910E99CC6021
:10315000234C7C44234A7A44CDE9064200D0042320
:103160006FF00042CDE901321F4A7A446B46089263
:103170000246002035F03CFE0AB010BC5DF814FB9E
:10318000F0B507464FF0FF301E4615460C463B464D
:1031900085B06A460091CDE90101314600200490D6
:1031A00004A8FFF7CBFF04990346601825B109B1C5
:1031B000024600E022462A6000290ED0002B02DDE4
:1031C0000099814209D03B466A463146001B009473
:1031D000CDE9010404A8FFF7B1FF05B0F0BD000080
:1031E000A7FFFFFFC1FFFFFF150A000000230360D8
:1031F000FFF7C6BF2DE9FF4F4FF000089A4614466F
:10320000C146464683B0D2E901B7CDF80080CDF87B
:103210000480916904988847109905465AEA01008C
:1032200005D009E0A1690498761C88470546216A03
:10323000284688470028F5D1681C03D05FEACB7088
:1032400005D02AE04FF0FF3007B0BDE8F08F2068CE
:10325000011D2160D0F800801FE002A86A46E9B293
:1032600000F0B3FB411C07D0801C09D04FF00009CF
:103270005FEACB7007D00AE0E169049888473EE036
:103280004FF0010904E0BDF8081028F8021B7F1E6A
:10329000A1690498761C88470546002F1ADD681C32
:1032A00018D0BAF1000F0DD0E81705EBD06042112D
:1032B00020F01F005AF822102A1A012090400142E3
:1032C000CBD107E010980028C7D12846216A88474B
:1032D0000028C2D0E16904988847B9F1000F0ED1E7
:1032E000109830B9002E04DD5FEACB7001D1A8F848
:1032F0000000A068B84202DD109818B117B16FF055
:103300000100A1E730469FE72DE9FF4F4FF000088D
:103310009B461446454683B0D2E90196CDF800801D
:10332000CDF804809169DDF848A0049888470746E5
:103330005BEA0A0005D009E0A16904986D1C884782
:103340000746216A384688470028F5D1781C03D003
:103350005FEAC97005D01BE04FF0FF3007B0BDE851
:10336000F08F2068011D2160D0F8008010E05FEA36
:10337000C97007D16A464046B9B200F046FB411C0D
:1033800031D08044A1696D1C0498761E8847074699
:10339000002E14DD781C12D0BBF1000007D03B4694
:1033A000DDE9101201F0ACF90028E0D107E0BAF134
:1033B000000FDCD13846216A88470028D7D0E16960
:1033C00004988847BAF1000F06D1002D04DD5FEAAA
:1033D000C97001D188F80000A068B04203DDBAF1DD
:1033E000000F03D016B16FF00100B7E72846B5E72C
:1033F0002DE9FF5F9B46144600273D469169D2E9BF
:103400000196DDF840A00198884780465BEA0A00F3
:1034100005D009E0A16901986D1C88478046216AA2
:10342000404688470028F5D1B8F1FF3F03D05FEA56
:10343000C97005D014E04FF0FF3004B0BDE8F09F34
:103440002068011D216007680AE05FEAC97001D1A8
:1034500027F8028BA1696D1C0198761E884780466B
:10346000002E15DDB8F1FF3F12D0BBF1000007D0F0
:103470004346DDE90E1201F043F90028E5D107E0EB
:10348000BAF1000FE1D14046216A88470028DCD01C
:10349000E16901988847BAF1000F05D1002D03DDDD
:1034A0005FEAC97000D13880A068B04203DDBAF18C
:1034B000000F03D016B16FF00100BEE72846BCE74D
:1034C00070B50D4601461446D36850692A4630F05F
:1034D000DFF9002807DA411C07D0E16820F000403E
:1034E00041F48041E160281A70BD2046FEF788FA59
:1034F0004FF0FF3070BDC1680022026021F480519E
:1035000041F0400111F4C06FC16001D0826070478A
:1035100002694168891AC269891A816070472DE978
:10352000F0470446C06840F48000E060010312D513
:1035300020F40020E060810606D4E26A61688A42D5
:1035400000D80A46511A216040F40010E06094F857
:103550002500BDE8F08720F40010E060800602D569
:103560002046FEF7A4FAE06842F281014FF0FF39ED
:103570000140012903D02046FEF742FAB6E0216857
:10358000002600290ADAC94340F480502160C4E9CA
:1035900002606068411C61600078DAE744F2400133
:1035A00008420CD020F4A04040F040002660E060CB
:1035B00021696068401AE169401AA06096E02169BB
:1035C00091B9C00310D4E069FDF720FE2061B0B1CD
:1035D000E06840F4006010F4407FE06002D140F405
:1035E0008070E06020696060E068D4F814A0C106D3
:1035F0001AD5C0030ED52046FEF736FA14E004F1C2
:10360000240020610120E061E06820F4407040F473
:103610008060E6E721696068401AA169014450466C
:1036200030F040F90028A6DBE068C0032AD56168C5
:10363000E06A884200D808462169451AE069471BBC
:103640001BD02046D4F81880FEF70EFA08EB0501CF
:103650005046C4F8188030F025F900288BDBE0686C
:1036600040F40030E060000202D5A0692844A06167
:10367000E1692069C91B45180DE02046FEF7F4F901
:10368000E769F5E725696168D4E90607491BE56242
:1036900008446560A061E06820F0100010F4C06F7D
:1036A000E06002D0204601F00BF9E06840F4805061
:1036B000C4E90260000205D52069E06260606FF035
:1036C000010046E7224639462846FFF7F9FE411C2D
:1036D0000CD02918E16258B1401E2060681C60605F
:1036E000E06840F40030E060287832E7484630E790
:1036F00065602046FFF7FFFEF8E72DE9F047054635
:103700000C46C86820F4201040F48000C860800691
:1037100002D50846FEF7CBF9E06841F282014FF08E
:10372000FF390140022903D02046FEF769F9B5E0D0
:1037300000F42041B1F5004F0FD1C00306D56168F8
:10374000E06A884200D80846606006E02069E062CE
:103750006060606930F067F8A061A0680022EEB296
:1037600000280DDAE1688B050AD4C043A06041F45B
:1037700090302260E0606068411C61600670A5E0E6
:10378000E0689046226040F40050E060206968BB29
:10379000606930F04AF8012704F12405A0B1A0893E
:1037A00010F4407F08D0E069FDF730FD206118B1CA
:1037B000E06840F4006016E0E7612561E06820F40D
:1037C000407040F480600EE0E069FDF71FFD0028C6
:1037D0002061F1D0E06840F4006010F4407FE060C8
:1037E00002D140F48070E06020696060E068256983
:1037F0006FF0010AC1051FD56168E06A884200D8F0
:103800000846411B04D022462846FEF703F9F0BBC8
:10381000E068010203D5E562C4E9015854E0691C7F
:10382000E1626160E16940F48030491EC4E9021040
:1038300030462E70BDE8F087010202D500F48032D8
:103840000AE06068411C61600670E0680A2E40F47E
:103850008030E06006D00022E16A6068814203D9CE
:103860000B4602E00122F7E70346A7895B1B7F05B1
:1038700003D4E7699F4200DDE2B1814200D80146EE
:10388000E5620F1AC4E90158002B09DD00E005E0EC
:10389000224619462846FEF7BDF808B14846C9E752
:1038A00047B1A069E5626560C01BA061E06840F0B7
:1038B0001000E060E068000208D56168A069E56278
:1038C000491B08446560A0615046B3E73046B1E744
:1038D00070B5C468A50713D0650211D4B2F5807F16
:1038E00009D0B2F5007F06D0B2F5806F08D1012370
:1038F00000F1240106E05D1E6FF07F46B54201D362
:10390000012070BD0161C361416024F47061114305
:10391000C160002070BD00002DE9F84399461746AC
:1039200080464FF000060C0002D18846012717A4FC
:10393000B9F1000F25D105210020AFF300808146A9
:103940001FE014F8011B4A46684600F03EF8761C5A
:103950000546401C0FD0AD1C13D0B8F1000F03D0AA
:10396000BDF80010A8F80010BDF80000002800D035
:103970003046BDE8F883FCF7E1FF042101602846EA
:10398000F7E77F1EDDD26FF00100F2E700000000D4
:103990007CB50C46054622B906210020AFF3008015
:1039A00002462146684600F030F80446401C07D025
:1039B00025B1224669462846FDF782FA20467CBD9D
:1039C000FCF7BCFF04210160F8E7F8B516460C4689
:1039D0000546FDF7A9FD036893F80101012804D00D
:1039E000185D78B101202C80F8BDD3F80301324670
:1039F000214603F20313C71868460023B84700990D
:103A00002980F8BD4FF0FF30F8BD2DE9F041164692
:103A10000C460546FDF788FD036893F8010101286F
:103A200007D0FF2C12D8185D80B101202C70BDE8A2
:103A3000F081D3F807013246214603F20713C71875
:103A40002846BC46BDE8F041002360474FF0FF30F8
:103A5000EDE710B50446AFF300802046BDE8104006
:103A6000FCF766BF70B505460C460A2000E06D1CE9
:103A7000FDF752FD35B128780028F8D102E0641C2A
:103A8000FDF74AFD14B120780028F8D1BDE8704058
:103A90000A20FDF741BD10B500F02EFFBDE8104033
:103AA000FEF7A5BA10B500F041FFBDE81040FEF7E3
:103AB0009EBA520000F06EBF002101E0801C491C3C
:103AC0000288002AFAD10846704701B5FDF7F8F9D7
:103AD00001BDB2F120030AD5C2F1200301FA02F1BF
:103AE00020FA03F341EA030100FA02F0704700FAFA
:103AF00003F14FF00000704730B5B0F10A0271F1E8
:103B000000034FEA900E4EEA817EB0EB0E0061EBAF
:103B100091014FEA101E4EEA017E10EB0E0041EBC0
:103B200011114FEA102E4EEA016E10EB0E0041EB20
:103B300011214FEA104E4EEA014E10EB0E0041EB00
:103B40001141401841F100014FEAD00040EA4170B4
:103B50004FEAD1014FEA810444EA907410EB8005EA
:103B600044EB01046D1944EB0404521BA3414FF0D4
:103B7000000348BF0A3200D530BD401C41F10001AE
:103B800030BD10B50446FDF7CFFC0068005D00F0C5
:103B9000010010BD2DE9F0470D46994692460446B6
:103BA00000F124080168880604D5E06921F01001BD
:103BB000216000E00120A84201DD471B00E0002752
:103BC000A1697A1902EB0900081AA0612078C006E1
:103BD00002D42046FEF77AFC002608E0D4E9012151
:103BE0001AF806009047206A401C761C20624E4559
:103BF000F4DB2078C0060AD52046FEF767FC06E015
:103C0000D4E9012130209047206A401C2062381EF0
:103C1000A7F10107F4DC07E0D4E9012118F8050059
:103C20009047206A401C2062281EA5F10105F3DCA4
:103C30002046FEF761FC2078000602D50220BDE890
:103C4000F0870120FBE72DE9FF4F0C461E464FF0A1
:103C5000FF378BB0D2E90001DDF860800A908A4618
:103C6000C1F30A5505B93D46002108464FF0000052
:103C7000BAF1000F00F4400005DA00EB80004FF4C9
:103C8000400101EA50004FEA9059B9F1010F00DDFF
:103C9000B9460A9850EA4A000ED044F61050A5F2F0
:103CA000FF3545432F14B8F1000F1ED07542291E71
:103CB0001EDDC9F100021CE0B8F1010F4FF0000059
:103CC00001D0302103E0F24305E02154401CB04212
:103CD000FBDB30460022002121540B99C1F80880FB
:103CE000C1E900200FB0BDE8F08FBD1B6D1CDEE701
:103CF0004A4600DA694206A800F012FD06AB93E8D6
:103D0000070003AB83E8070050460A9932F0CCFF66
:103D10008DE80700A0F500501F3800900398002D93
:103D20000ADD42F21F014A460844002303A903901A
:103D3000684633F077FA09E0A0F500504A461F388C
:103D4000002303A90390684633F096FA8DE8070034
:103D50000004000C03D04FF0FF30410800E0104693
:103D6000B8F1000F03D00022009215461EE0751E28
:103D700005D4FFF7C1FE303262556D1EF9D5B3464A
:103D80000122084302D000227F1C04E02078302862
:103D900001D100227F1E002A099784D01DE0112D39
:103DA00007DAFFF7A9FE303262556D1C50EA0102B6
:103DB000F5D1084302D00098C8B10EE00021681E7A
:103DC00005E0235C625C63542254401E491C81421E
:103DD000F7DBAB46A81B401E0990002004F80B003F
:103DE0000B98099AC0F80880C0E9002B7AE71126E1
:103DF0004FF0000857E72DE9F04F88460446D21DE2
:103E000022F0070191B0D1E90001CDE90A0133F0B8
:103E10007FFB02460B98C00F01D02D2007E02068E1
:103E2000810701D52B2002E0202101EAC000032AEE
:103E3000099001D0072A05DB03464146204600F0E1
:103E4000ADFD0BE12078800601D5E06900E0062099
:103E5000B8F1650F814606D0B8F1660F18D0B8F1F9
:103E6000670F70D131E00020B9F1110F009001DB34
:103E7000112301E009F101030AAA01A90CA8FFF727
:103E8000E2FEDDE90C70002609F10105834647E0FA
:103E900001204B4600904FF000470AAA01A90CA848
:103EA000FFF7D1FEDDE90DB00C995D46002610B993
:103EB00009F101000D18B9EB050003D4C0F1FF367C
:103EC00009F10105A5EB09002BE0B9F1010F01DAB9
:103ED0004FF001090020B9F1110F0090484601DDB3
:103EE000112300E003460AAA01A90CA8FFF7ABFEC4
:103EF000DDE90C704D4600268346207800070AD481
:103F0000AB4500DA5D4601A8012D04DD411911F829
:103F1000011C302907D04F4502DA17F1040F04DAEB
:103F2000012082460FE06D1EEEE7002F02DCED1B44
:103F30003E4403E0781CA84200DD7D1CB81B00F164
:103F4000010A4FF000472078000703D4AA4501DB9F
:103F50004FF0FF3A0021B7F1004F0DF143088DF803
:103F6000431024D002202B23002F01DA7F422D237F
:103F70000A21021EA0F1010000DC5FB197FBF1FCF9
:103F800097FBF1F201FB1C7C17460CF1300C08F892
:103F900001CDEEE7A8F1010003702188090501D5E4
:103FA000452100E06521A0F1010800F8011C0998F5
:103FB0000FA9A1EB0807FF1D00B10120411901EB7A
:103FC000EA70A1693844081A401EA0612078C00632
:103FD00002D42046FEF77AFA099828B1D4E90121E3
:103FE0009047206A401C20622078C00622D52046D7
:103FF000FEF76CFA1EE0002E04DBB34502DD01A8DB
:10400000805D00E03020D4E901219047206A401C07
:104010002062761CAAF101005FEA000A0AD1FEF7CD
:10402000D5F9C0680168405CD4E901219047206A55
:10403000401C2062281EA5F10105DCDC07E0D4E964
:10404000012118F8010B9047206A401C2062381E9D
:10405000A7F10107F3DC2046FEF74EFA032011B06A
:1040600041E600002DE9F04F04460D46D21D22F036
:10407000070089B0D0E900974846394633F048FA3E
:104080000246F80F01D02D2307E02068810701D5F3
:104090002B2302E0202101EAC0038DF820300BB170
:1040A000012000E00020032A824601D0072A04DB19
:1040B0002946204600F072FC3FE12078800601D4BA
:1040C0000D2500E0E569C7F30A560D2D49DA0021F8
:1040D0004FEA175B08464FF00000002F00F4400045
:1040E00007DA00EB80004FF4400100EBD07001EAEA
:1040F00060008115012901DD4FF0FF3100224FEAF8
:10410000850CBCF1180F06D31346ACF118004FF024
:104110008052C24003E04FF4801323FA0CF30CF1F9
:104120000C0CBCF1200F04D3ACF1200C09FA0CF0FC
:1041300001E007FA0CF000294FF0004801DD18B942
:104140000FE00ED140450CD319EB02095F4121B9B4
:10415000404502D19F4329EA0209BBEB175F00D01B
:10416000761C2088000502D57B48784402E07A4816
:104170007844193808AA302302F80A30037C0AF17F
:104180000101002E0AF1020A53546A4602DC4FF084
:10419000300101E04FF031014FF001088DF80010BF
:1041A00002D0A6F2FF3603E059EA470100D06B4E79
:1041B000002D02DC2178090704D54FF002082E21DA
:1041C0008DF80110C44600210BE0C7F303433F0103
:1041D000C35C491C6D1E02F80830052908F101086E
:1041E00001DA002DF1DC00210CE000EB1973491C11
:1041F0001B786D1E082902F808304FEA091908F1EA
:10420000010801DA002DF0DC21688B0602D516E0EA
:10421000A8F10108E04505DD02EB080313F8013CB5
:10422000302BF5D0B8F1000F09DD02EB080313F8CD
:10423000013C2E2B03D1090701D4A8F10108002D60
:1042400005DD3E2102F808106D1E08F10108407CD2
:10425000002E02F8080008F1010804DA2D20764249
:1042600002F8080002E02B2002F808000A214FF4AF
:104270007A70864208F101080BDB96FBF0F33033CD
:1042800002F8083096FBF0F308F1010800FB136612
:1042900001E0642E0CDB642096FBF0F3303302F86F
:1042A000083096FBF0F308F1010800FB136601E00B
:1042B0000A2E06DB96FBF1F0303002F8080008F118
:1042C000010896FBF1F001FB1060303002F80800A5
:1042D000A16908F1010808EB050202EB0A00081ABF
:1042E000A0612078C00602D42046FEF7EFF8216ACC
:1042F00008AE01EB0A00206204E0D4E9012116F8BF
:10430000010B9047BAF1010AF7D22078C00602D516
:104310002046FEF7DBF86E4609E016F8010B3E2852
:104320000FD0D4E901219047206A401C2062B8F1E7
:104330000108F2D22046FEF7DFF809B00320BDE8FD
:10434000F08F206A2844206203E0D4E90121302064
:1043500090476D1EEBD3F8E7094F030002FCFFFF07
:1043600010B5436913B1AFF3008001E0FEF746F9E1
:10437000012010BD128800F1240182840022C28431
:104380000122EDE711684FF0FF32E9E72DE9F34F25
:104390004FF0000A0C4656468DB001200C9001F1FA
:1043A0000C000B9062690B9801219047051E2DD0DF
:1043B000252D2CD0216A8847C0B162690B98012154
:1043C0009047216A88470028F7D16269411E0B98FF
:1043D000904700E0761CA1690D988847216A8847BC
:1043E0000028F7D1E1690D988847DBE7A1690D98AE
:1043F0008847A842074601D1761CD3E7E1690D98AA
:1044000088477F1C02D1BAF1000F6FD06BE162695F
:104410000B9800273D46394690472A2804D1626907
:104420000B98012190470125DFF8D08262690B9833
:1044300001219047A0F130010A290AD24745E5DC65
:1044400007EB870100EB4107303FDFD445F0100553
:10445000ECE7E90601D46FF000476C280AD04C283D
:1044600014D0682815D06A280DD074281CD07A285A
:104470001AD01DE062690B98012190476C2802D088
:1044800045F0040514E045F002050DE045F0200577
:104490000AE062690B9801219047682802D045F034
:1044A000080505E045F4006562690B980121904715
:1044B000C4E9015765283DD019DC58287AD00CDCB6
:1044C000452837D004DC252826D041289ED131E06C
:1044D00046282FD0472899D12CE05B2877D0612837
:1044E00028D063287CD0642823D15AE0F6E06F28D6
:1044F00048D008DC66281DD067281BD0692821D049
:104500006E2816D127E0702845D0732868D075280A
:1045100047D078280DD14DE0A1690D98884725280E
:1045200005463FF469AFE1690D9888476D1C3FF47B
:104530006AAFD8E00D9923466A466FF0010034F067
:1045400057FCC5E045F0400023464FF00002606094
:10455000A80736D43EE0E8077FF447AF2068011D86
:1045600021600068290501D506701BE7290701D5E0
:10457000068017E7A90703D5F117C0E9006111E725
:1045800006600FE745F0400023464FF008026060E8
:10459000A80716D41EE040F60E0125EA010060606F
:1045A00016E045F0400023464FF00A026060A8077D
:1045B00007D40FE045F040006060A80708D5234607
:1045C00010220D996FF00100FEF744F980E007E03A
:1045D000102223460D996FF00100FEF7E6F977E00F
:1045E0004FF0000963284F46C8464B46CB4602D0E1
:1045F0005B2806D038E0E80601D40120A06001273E
:1046000032E06269D4F80CB00B98012190475E2823
:1046100007D14FF0010949466269D4F80CB00B98F4
:104620009047216939B900210A4603AB43F821209C
:10463000491C0829FADBD8B3216949B308F10108FC
:1046400062690B98012190475D28F4D1B9F1000F00
:1046500009D0002003A951F82020D24341F820209E
:10466000401C0828F7DB03AB2069002820794FEABB
:1046700040701ED05B462246CDF80080CDE9019700
:104680000D9900286FF0010020DAFEF7B1FE1FE05F
:10469000C11703AA00EBD1614B1121F01F0102EBFE
:1046A0008302411A13680120884003431360C7E75F
:1046B00019E00D99224600286FF00100009702DAF8
:1046C000FEF798FD04E0FEF716FA01E0FEF71CFE87
:1046D00000280ADA401C06D10C9820B14FF0FF30B8
:1046E0000FB0BDE8F08F5046FAE7E90701D10AF1B3
:1046F000010A064400200C9054E60000CCCCCC0CFF
:1047000010B508E030F8024B9C4204D10AB10020F9
:1047100010BD012010BD491EF4D2104610BD00008E
:104720002DE9F047814616468AB0354878440DC8D1
:104730008DE80D0032487844801C03AC0DC884E835
:104740000D0041F69B300844372190FBF1F290FBBD
:10475000F1F5A5F1800501FB12041B3C02D5644272
:10476000012000E00020DFF898A080460027FA44EE
:10477000AAF1BE0A0EE0E0070AD03246684607EB0F
:10478000470101230AEB810132F076FD8DE8070035
:1047900064107F1C002CEED1194F7F44AE3F19E00E
:1047A000E80715D007EB04100DF1180A90E80E0089
:1047B0008AE80E00C068F04201D19819089032468C
:1047C000012306A903A832F057FD03AB83E80700D5
:1047D0006D10641C002DE3D14FF001033246694691
:1047E000B8F1000F03A802D032F01CFD01E032F056
:1047F00043FDC9E90001C9F808200AB0BDE8F08707
:10480000D84903002DE9F0471C469246804602FB3A
:1048100001F511B3A76800203DE0002F3DDCE06901
:10482000A8421DDAB9F1000F1AD0224629464046A7
:10483000FDF7F0F808B1A7602AE0E06810F4C06F57
:1048400001D0002008E022696168891AE269511AE2
:10485000C003A16001D44842A0605046BDE8F08783
:10486000A84203DAE06840F40000E060214698F8CE
:104870000000FEF742FFE16821F40001E160411C05
:1048800006D0A768002805DB6D1E08F1010813E0BB
:104890000020E3E7012081460EE0AF423E4600DD06
:1048A0002E46414632466068FCF70AFB6068BF1B33
:1048B000AD1B3044B0446060002DAEDCA760CCE797
:1048C00070B5054640F202260A4C0FE094F85000FD
:1048D000C00708D0AC4206D0E06836EA000002D13A
:1048E0002046FCF7A3FD206D20F00104002CEDD143
:1048F00070BD0000B800003010B5014602A0FFF7FF
:10490000B1F8012010BD00005349475254524544AC
:104910003A2052656469726563743A2063616E2758
:1049200074206F70656E3A200000000010B50128F9
:1049300005D0002103A0FFF795F8012010BD09A1C3
:10494000F8E7000053494752544D454D3A204F7502
:1049500074206F662068656170206D656D6F727977
:10496000000000003A2048656170206D656D6F722F
:104970007920636F727275707465640010B50449B4
:1049800000F076FABDE810400148FCF76ABD00006F
:104990006001003001B5FCF7D8FA01BD2DE9F04106
:1049A0001F46044603260168072A01F4006004DB61
:1049B00008B116A505E016A503E008B115A500E0AD
:1049C00015A521F010002060A069C01EA0610FB1E4
:1049D000401EA0612046FDF779FD4FB1D4E90121C9
:1049E00038469047206A401C2062C01C206206E0C6
:1049F000206AFAE7D4E9012115F8010B9047761EE9
:104A0000F8D22046FDF778FDBDE8F0814E414E001A
:104A10006E616E00494E4600696E66002DE9FF4FDB
:104A20001F464FF03C0987B04FF00042DDE91410FB
:104A300001F10108DDF858A002EA4050039000207F
:104A400005908346054604460490B969461E0898B9
:104A50008847AAF1010A0290BAF1000F3BDD0298E3
:104A60002E2815D01021FDF7E7FE00282EDB4FF091
:104A7000010B0599014317D0B9F1000F0BDB4A4632
:104A8000C117FFF726F805430C43A9F1040905E017
:104A9000012004900BE008B145F0010501200590CC
:104AA000049820B9361D02E0049800B1361FB96998
:104AB000089808F101088847BBF1000FAAF1010A24
:104AC0000290C9D00999C1F80080C5E70298702802
:104AD00008D0502806D0F96908988847BBF1000F24
:104AE00014D04FE0002002900120BBF1000F049091
:104AF00009D0B969089808F101088847AAF10109A5
:104B0000B9F1000F07DCF969089888476FF00100D8
:104B10000BB0BDE8F08F2B2804D02D280CD14FF01E
:104B2000FF300490B969089808F101088847A9F195
:104B30000109B9F1000FE6DD411CE4D00A21FDF7BF
:104B40007BFE0028DFDB029908F1010801EB8101FF
:104B500000EB41000290B969089888470A21FDF7E7
:104B60006BFE099AA9F10109B9F1000FC2F80080A2
:104B700001DD0028E7DAF969089888470499029866
:104B800000FB016655EA040004D004F0404109002E
:104B900002D006E0039898E0A40044EA9574AD00C2
:104BA000B61E04F00041080002D16D196441761E62
:104BB000159810F0240F03D04FF00B095C4803E068
:104BC0004FF028096FF07D008246564507DAAAEBC0
:104BD00006018944B9F1410F01DD4FF0410901207F
:104BE0000021A9F10102FEF774FF024628400B469E
:104BF0002140084301D0012100E00021501E029114
:104C000043F1FF3128402140084301D0012000E05A
:104C100000200299834651EA0B014FD0002108463B
:104C20004FF00000039900F4400039B100EB800020
:104C30004FF4400100EBD07001EA600080150128BC
:104C400002DD4FF0FF3000E013D0401C36D0029858
:104C500060B3BBF1000F0CD14A4601200021FEF7E2
:104C600038FF28402140084301D0012000E0002007
:104C7000E0B101204A460021FEF72BFF0346401910
:104C80000A4661412D1A8C4111D3B9F1400F09DD5B
:104C9000159810F0240F02D0AAF1340603E0AAF10F
:104CA000170600E0761C00254FF0004406E05B1E6E
:104CB00042F1FF3220EA030521EA0204CAF10100B1
:104CC000B04206DA1B490398084301900020009087
:104CD0000EE0039AC4F3D321E80A0A43164940EAD6
:104CE00044500A433146CDE90002684633F07EFC69
:104CF000159810F0240F0BD01598C00715D13868FF
:104D0000DDE90012031D3B600068C0E900120CE001
:104D100002A8694633F0B6FB1598C00705D138687C
:104D2000029A011D3960006802604046F0E600000A
:104D300002FCFFFF0000F07F0000F03F2DE9FF4F75
:104D400092461D4685B04FF00041DDE9124BDDE98A
:104D500014727F1E01EA4B50414940F0FF4940EA7E
:104D60000108002122F020004928049102D04E2899
:104D700028D04CE03BA0012607C88DE80700A969B0
:104D80000698641C88477F1E014606D41DF806005D
:104D900018B121F0200181420BD0E96906988847BB
:104DA000032E34D0082E32D06FF0010009B0BDE8D8
:104DB000F08F761C032E01D0082EE0D1601CCAF8BB
:104DC0000000DCE7A9690698641C88477F1E2AD486
:104DD00020F02000412826D1A9690698641C884744
:104DE0007F1E20D420F020004E281CD1A9690698EF
:104DF000641C88477F1E48F4002849F48009CAF8DB
:104E0000004001D4282806D0E969069888475FEA5F
:104E1000CB7012D022E0A9690698641C88477F1ED7
:104E200001D4002803DAE96906988847BCE72928F5
:104E3000F1D1641CCAF80040E9E71BF0240F07D049
:104E400028680499031D2B600068C0E9001805E07C
:104E50002868021D2A600068C0F800902046A5E777
:104E60000000F07F494E46494E4954590000000069
:104E700070B50D46044604E0294633F01DFC401C85
:104E800004D014F8010B0028F6D170BD4FF0FF30AC
:104E900070BD00000A460146144800F035B800BF56
:104EA0000020704711488068704700BF002070479D
:104EB0000E484068704700BF80B50C49C86008467E
:104EC00000F042F8002080BD023818BF6FF00300E8
:104ED000704700000A460146044800F03DB800BF94
:104EE0000A460146014800F054B800BF1C000030DB
:104EF00000F004BA00F002BA0020704701207047A9
:104F0000004870470402020210B50C46C9B20129DC
:104F10000AD10068114631F06BFE10B16FF0070046
:104F200010BD14F4E06F02D06FF0030010BD14F454
:104F3000405F1CBF6FF0090010BD14F4404018BF63
:104F40006FF00A0010BD000002490068096831F0E6
:104F500027BE00BF1000003070B5B9B11446AAB129
:104F6000064600200D46B060A04204BF002070BD80
:104F7000306831F031FE0028FAD03068294631F02F
:104F800021FEB06801350130B060EDE76FF004003C
:104F900070BD70B5D9B11546CAB104460E460020A1
:104FA000A84260600CD0206831F036FE0028FAD0AC
:104FB00016F8011B206831F03CFE60680130EFE715
:104FC000206831F029FE0028FAD0002070BD6FF073
:104FD000040070BDFEE7FEE7FEE7FEE7FEE7FEE742
:104FE0000249096801B10847704700BF4402003018
:104FF000FEE7FEE7FEE7FEE7FEE7FEE7FEE7FEE789
:10500000FEE7FEE7FEE7FEE7FEE7FEE7FEE7FEE778
:10501000FEE7FEE7FEE7FEE7FEE7FEE7FEE7FEE768
:10502000FEE7FEE7FEE7FEE7FEE7FEE7FEE7FEE758
:10503000FEE7FEE7FEE7FEE7FEE7FEE7FEE7FEE748
:10504000FEE7FEE7FEE7FEE7FEE7FEE7FEE7FEE738
:10505000FEE7FEE7FEE7FEE7FEE7FEE7FEE7FEE728
:10506000FEE7FEE7FEE7FEE7FEE7FEE7FEE7FEE718
:10507000FEE700002DE9F04F91B004462E301D46AA
:10508000A1F101094FF0300B4FF0000A0490D14517
:1050900040F3F98010789046002800F0F48008F181
:1050A0000102252819D11078252819D063281BD092
:1050B00078281FD0662832D073285AD0752869D036
:1050C0006428E4D1A9EB0A0004EB0A010B28C0F222
:1050D000DC8001CD01F0CCF866E000F05DFAD6E7A7
:1050E000252000F059FACBE001CD08F1020200F0D2
:1050F00053FACCE7A9EB0A00092840F3C48047F62D
:1051000030000AF10207102224F80A00E61901CD46
:10511000314601F0B7F8B91B01EB000AB0E0A9EB8A
:105120000A0004EB0A010E28C0F2AF80E81D6FF000
:105130007E0520F0070C08469CED000BB7EEC00B77
:1051400010EE102AB2F1FF3FDCBF2D2300F8013B27
:10515000D30D6FF3DF5255FA83FE01F12F050021C5
:105160000170BEF1800F22D1291A002A7ED04FA2F1
:105170007DE002CD04EB0A0052464A4580F2808071
:105180000B78002B7CD000F8013B013102320AF190
:10519000010AF2E7A9EB0A0004EB0A010B2874DB11
:1051A00001CD0A2201F06EF8A0EB040A68E00D239D
:1051B00039A6114633B116F8017B013B22FA07F7F5
:1051C0003944F7E742F6316206460280002206F8CB
:1051D000022FAF1B082F4FDB033006221AB100F855
:1051E00001BB013AFAE7CDE901E5CDF80CC005AD08
:1051F00008460A22294601F045F8304639462A4633
:1052000001F072F8811B80F800B007290DD0B21DA3
:10521000073000238B4208DA10F8087C013302F8CB
:10522000017900F808BC0138F4E70499421C5144A4
:10523000091A12F8023D0131501C302B02D1B24242
:105240000246F6D80022027017A201F04DF8064679
:10525000019805AD294601F00BF802982A46811BFA
:10526000304601F041F8DDF80CC004E010A26546BC
:1052700001F03AF8AC4606460CF10805A6EB040A24
:1052800008F1020203E704EB0A01002008700AF1AA
:10529000010011B0BDE8F08F0304080B0D0E1112D0
:1052A00013141516170000002A325E004E614E00DE
:1052B000496E6600FEE7FEE7FEE718992298119C0A
:1052C000209ABBB20091199980B201911A9902916A
:1052D000109903910F99CDE904103A9838990690E6
:1052E00015980790204670474FF08044D3176B43C2
:1052F000E2FB0543DD1714EB550470476FF0030024
:1053000070474DF808ED1C461546064602F022FA95
:10531000286808210422036828465DF808EB18472E
:105320002046B0EE480A314608F066B80021C0E9D0
:105330000411C0E90611C0E90041C0E9023210BD04
:105340000D4611461C4612F054BA284631462246F4
:105350001DF0C3B8306821463A462B46CDE9000817
:1053600048467047CDE900B5CDE90270494633465D
:1053700070478246594648462847026828461DF02D
:10538000ACB83946026820461DF0A7B8C1E9005202
:10539000C1E90422C1E906222022C1E90243FBF748
:1053A0008FBD05465946384620470FC70120089053
:1053B0000590D6E90301CDE90610296A0020CDE960
:1053C0000300002970470125DAF8146070474DF892
:1053D00008ED00220C4606464FF0000A1DF07DF84D
:1053E00005463046214601221DF077F883463046B7
:1053F000214600225DF808EB1DF00DB82046294635
:1054000000221DF037BB3146026820461DF084B9EA
:105410000746294630461DF03FB807FB00F12046FD
:10542000184720210446FBF773BE0021C0E9041190
:10543000C0E90611C0E90041C0E9023210BDCDE962
:1054400000602B46029170474DF808ED20686568B2
:10545000002200240290DDE901101DF03EF8726880
:1054600040684FF0010A134602CB01EAE5773D445C
:105470005DF808EB70470021C0E90411C0E906118E
:10548000C0E90041C0E9023210BD141D126913CCFD
:10549000CDE912241C9CCDE91010D3E90001D3E919
:1054A0000623ADF83600ADF83810CDE91623704765
:1054B0002968103524682CCDCDE90051414602946D
:1054C0007047DBF80810DAF844205046104720688F
:1054D000CDE90057414632464B460290704720685E
:1054E000CDE90057414632464B4602907047B4EE34
:1054F000410A31EE402A30EE033AF1EE10FA33FE63
:10550000021A7047CDE90058CDE902740491304683
:1055100070472868414632463B4600902046704717
:105520002068CDE9007649465A46534602907047B6
:1055300000210024484638474DF808ED206864688B
:1055400000220290DDE901101CF065FF7A68116805
:1055500001EAE47323448B425DF808EB7047B0FB2B
:10556000F1F04843704708EBC9000AEB4A02416872
:1055700051F822107047316900EB400001EBC50182
:10558000496801EB800070BDA461C4E92400C4F83F
:105590009800A4F88C00704704F80A000AF1010A88
:1055A000704780EA0401B1F1FF3F4FF0FF317047CF
:1055B0004DF808ED1C461546064602F0CBF8286863
:1055C00004210422036828465DF808EB1847B7EE6B
:1055D000001BB4EE410BF1EE10FA7047074631465E
:1055E00028461CF059BF2068CDE900764146524656
:1055F0004B46029070473946026850461DF08CB801
:105600003946026828461DF087B84DF808ED48462F
:105610001CF024FF04460B981CF020FF0546409820
:105620001CF02BFF41995DF808EB70473846214686
:1056300042460CF02FBC0021C0E90411C0E906115C
:10564000C0E90041C0E9023210BD0021C0E90411E7
:10565000C0E90611C0E90041C0E9023210BD286866
:1056600041463A4633460090204670472946304628
:105670004047C4E9021010BD054630463847DDE911
:1056800001104A461CF029BF0446294630461CF04A
:1056900003BF0746214630461CF0FEBECDE9020896
:1056A0001098CDE9004906920E9A07900F98CDE91F
:1056B000041329465B4670473146ADF85800404612
:1056C000584706460120012500F056BA06462946ED
:1056D00038461CF0E1BE07462146304628472046A2
:1056E000394602221DF018B802EB83025E1C012528
:1056F0000832704740461EF09ABF4DF808ED064646
:10570000806814460D461EF0BBFF29465DF808EB85
:105710001EF02CBB009004F16C0000F0E9BF0122E8
:1057200003682046184715B0BDE8F08FDBF8181065
:10573000CDE90056CDE902403A460491704705464E
:105740000020287030467047214640463847B0EE6A
:10575000480AF0EE490A08920C9ACDE909257047EB
:105760000546FBF7D5BC746900F006BA6D680F906A
:10577000B9F1000F01CD0E90384670470546002064
:105780002880304670470246304620470546494645
:1057900020461CF081BEC0FB0421C81712EB50004C
:1057A0004FF0004241F1000170470422036828468F
:1057B00018470746214630462847CDE90047CDE93E
:1057C000025BCDE9040A7047CDE9005702903246EA
:1057D0007047CDE91107D5E90423D6E90101CDE9E8
:1057E0000901D5E9000170474DF808ED28461CF085
:1057F0003FFE054658461CF03BFE002C5DF808EBCA
:105800007047B4EE401AF1EE10FA70470546204694
:10581000314600221DF02EB9002C50EA128051EAC8
:105820001381B0BD02EB85026B1C01240832704766
:1058300021461CF031BE206841463A46334600906E
:10584000284670471090DBF810009BED058A0E90FB
:1058500068680025B9F1000F02C80F900D917047DC
:10586000314640461CF018BE834641465046284704
:105870002046394601221CF04FBF4068151D4FF0ED
:10588000010A00267047DAF8040010211EF052BE0B
:1058900005683846CDF800A028470C4484EA060085
:1058A0004FF0FF31B0F1FF3F2846704703682846AC
:1058B00018472946026820461CF02EBF5846022190
:1058C00050474DF808ED28461CF0D7FD05465846D0
:1058D0001CF0D3FD002C5DF808EB704720463146E4
:1058E00000221CF019BF00984FEA84084FF000090D
:1058F00060434FEA800B704729461CF0CDBD4DF840
:1059000008ED76680F902F46D8F8045001CE0E901F
:10591000D8F8000055F8048B0D9058461CF0ADFDEA
:105920009AF800105DF808EB704748463146284762
:10593000D8F838107A6C3846104710CD013604FB81
:105940000AFA704704F140002821FBF7E1BB002070
:10595000256070BD2046394632462B46CDE9009879
:1059600070474DF808ED28461CF091FD0546584655
:105970001CF08DFD002C5DF808EB704780CB0134E6
:1059800007FB0AFA70470B9BCDE904081098CDE994
:105990000249CDE906120E990F9ACDE9003B0D9B05
:1059A00070474DF808ED1C461546064601F0D2FE3C
:1059B00028685DF808EB70474DF808ED28461CF0A4
:1059C0004DFD054658461CF049FD002C5DF808EBDE
:1059D00070470021C0E90411C0E90611C0E9004187
:1059E000C0E9023210BD05460020C5E9000030467E
:1059F00070474DF808ED00220C4607464FF0000AAC
:105A00001CF06BFD05463846214601221CF065FD61
:105A100083463846214600225DF808EB1CF0FBBCAB
:105A2000307800285FEA1F902043C0077047206845
:105A30003946426820461047284659461CF039BD71
:105A4000B7EEC00AB7EEC11A81EE000B12F06CBCC3
:105A500001285FEA1F914900002830467047D1F8BD
:105A60000C90B9F1000F70474DF808EDD9F80440DB
:105A70000D909BED079ADBF818B0384654F8049B5C
:105A80001CF0FBFC31785DF808EB70470546002000
:105A90002860304670470446287A411E082970471E
:105AA0009BED050A9BED071AB4EE410AF1EE10FAE0
:105AB0007047FEE7FEE7000001490860704700BF3D
:105AC00044020030034880F30A8800F00DF8FAF72A
:105AD00077FE00BFC02C0030FEE7FEE7FEE7FEE7E2
:105AE000FEE7FEE7FEE7FEE70A480B490160D0F853
:105AF000801041F47001C0F88010C16841F40021A9
:105B0000C1600648BFF36F8F016821F0FF0101609B
:105B1000704700BF08ED00E00000001000E301E066
:105B2000FEE7FEE7FEE7FEE7FEE7FEE7884204BF8A
:105B30000120704720B10A4611B102CA00F002B834
:105B400000207047B0B578B103688B420AD10430A9
:105B500000238B42A4BF0120B0BD10CA20C801336E
:105B6000A542F6D00020B0BD00295FEA1F90B0BD6D
:105B7000042101EB8000704710288FBF02A040B2C3
:105B8000054951F820007047556E6B6E6F776E2097
:105B9000747970650000000044910310FEE7FEE791
:105BA000FEE7FEE7FEE7FEE7FEE7FEE7FEE7FEE7CD
:105BB000FEE7FEE7FEE7FEE7FEE7FEE7FEE7FEE7BD
:105BC000FEE7FEE7FEE7000010B5054C20462AF090
:105BD00059FB9E489E4A2146BDE81040FBF795B808
:105BE000D70D003010B5054C20462AF04BFB9748E6
:105BF000974A2146BDE81040FBF787B8D80D003022
:105C000010B5054C20462AF03DFB9048904A2146AD
:105C1000BDE81040FBF779B8D90D003010B5054C40
:105C200020462AF02FFB8948894A2146BDE81040CA
:105C3000FBF76BB8DA0D003010B5054C20462AF0A2
:105C400021FB8248824A2146BDE81040FBF75DB83F
:105C5000DB0D003010B5054C20462AF013FB7B48C5
:105C60007B4A2146BDE81040FBF74FB8D60D003007
:105C700010B5054C20462AF005FB7448744A2146AD
:105C8000BDE81040FBF741B8DC0D003010B540F620
:105C9000E754C3F2000420462AF0F4FA40F2E1206F
:105CA00040F20002C1F20300C1F200022146BDE849
:105CB0001040FBF72AB810B540F6E854C3F20004D0
:105CC00020462AF0DFFA40F2E12040F20002C1F261
:105CD0000300C1F200022146BDE81040FBF715B8F1
:105CE00040F6E650C3F200002AF0CCBA10B5054CDD
:105CF00020462AF0C7FA5548554A2146BDE81040CB
:105D0000FBF703B8DD0D003010B5054C20462AF036
:105D1000B9FA4E484E4A2146BDE81040FAF7F5BFA1
:105D2000D50D003010B540F6E954C3F2000420460A
:105D30002AF0A8FA40F2E12040F20002C1F203008A
:105D4000C1F200022146BDE81040FAF7DEBF0000B4
:105D500010B5054C20462AF095FA3C483C4A2146AD
:105D6000BDE81040FAF7D1BFD40D003010B5054C96
:105D700020462AF087FA3548354A2146BDE81040CA
:105D8000FAF7C3BFE00D003010B5054C20462AF0ED
:105D900079FA2E482E4A2146BDE81040FAF7B5BFE1
:105DA000E10D003010B5054C20462AF06BFA27486B
:105DB000274A2146BDE81040FAF7A7BFE20D0030A0
:105DC00010B5054C20462AF05DFA2048204A2146AD
:105DD000BDE81040FAF799BFE30D003010B5054C4F
:105DE00020462AF04FFA1948194A2146BDE81040CA
:105DF000FAF78BBFE40D003010B5054C20462AF0B1
:105E000041FA1248124A2146BDE81040FAF77DBF18
:105E1000DE0D003010B5054C20462AF033FA0B4851
:105E20000B4A2146BDE81040FAF76FBFE50D003080
:105E300010B5054C20462AF025FA0448044A2146AC
:105E4000BDE81040FAF761BFDF0D0030E10203103A
:105E50000000001083B0C0B503AF0EC703A90091C6
:105E600000F02EFABDE8884003B07047E0B5B7EE09
:105E7000E01AB7EEC00A04A153EC102B8DED001B05
:105E800007F05DFD8CBD00BF785F76616C75653A8B
:105E90002025662C20795F76616C75653A20256631
:105EA0000A000000B0EEC00A704731F0BFBB32F00C
:105EB00061B832F015B9B1EEC01AB4EE411AF1EE84
:105EC00010FA68BF32F0D4B9B0EE410A70472DF035
:105ED000E2B980B5AFF30080BDE880402DF0ADBBE6
:105EE00080B5AFF30080BDE880402DF0A6BB80B543
:105EF000AFF30080BDE880402DF09FBBE0B50A46BF
:105F000001466846012300F019F8DDE90013002876
:105F100051EA108253EA108110468CBDE0B50A4662
:105F200001466846012300F055F8DDE9001300281A
:105F300051EA108253EA108110468CBDF8B5002951
:105F400042D01C4617460E460546002A13DD1CB1FA
:105F5000FAF7F4FC00210160694630463A460096A3
:105F6000FAF79CFEC5E900010098017869B10020AC
:105F7000C5E90000F8BD701C10F8011CC9B1A1F101
:105F800030020A2A0AD30130F6E7B042EFD0CCB192
:105F9000FAF7D4FC0068A8B10020F8BD302908D178
:105FA000007800F0DF00582803D12846314610223F
:105FB00002E0284631460A22234601B0BDE8F040FF
:105FC000FFF7BCBF0120F8BD2848294940F227123D
:105FD000FAF7A0FEF8B5002942D01C4617460E4637
:105FE0000546002A13DD1CB1FAF7A8FC0021016068
:105FF000694630463A460096FAF752FEC5E9000176
:106000000098017869B10020C5E90000F8BD701C56
:1060100010F8011CC9B1A1F130020A2A0AD30130DB
